:1000000000800020BD0100001D7C0000D57B0000A9
:10001000D57B0000D57B0000D57B0000D57B0000A0
:10002000D57B0000D57B0000D57B00001D7C000047
:100030001D7C0000D57B00001D7C0000C57B0000FE
:100040001D7C00001D7C00001D7C00001D7C00004C
:100050001D7C00001D7C00001D7C00001D7C00003C
:100060001D7C00001D7C00001D7C00001D7C00002C
:100070001D7C00001D7C00001D7C00001D7C00001C
:100080001D7C00001D7C00001D7C00001D7C00000C
:100090001D7C00001D7C00001D7C00001D7C0000FC
:1000A0001D7C00001D7C00001D7C00001D7C0000EC
:1000B0001D7C00001D7C00001D7C00001D7C0000DC
:1000C0001D7C00001D7C00001D7C00001D7C0000CC
:1000D0001D7C00001D7C00001D7C00001D7C0000BC
:1000E0001D7C00001D7C00001D7C00001D7C0000AC
:1000F0001D7C0000CD9700001D7C0000119F0000BA
:100100001D7C000075A400001D7C00001D7C00000B
:100110001D7C00001D7C00001D7C00001D7C00007B
:100120001D7C00001D7C00001D7C0000590B0000A0
:10013000B50B0000110C0000510F0000BD0F0000B6
:100140002D1000001D7C00001D7C00001D7C0000A7
:100150001D7C00001D7C00001D7C00001D7C00003B
:100160001D7C0000298000001D7C00001D7C00001B
:100170001D7C00001D7C00001D7C00001D7C00001B
:100180001D7C00001D7C00001D7C00001D7C00000B
:100190001D7C00001D7C00001D7C00001D7C0000FB
:1001A0001D7C00001D7C00001D7C00001D7C0000EB
:1001B0001D7C00001D7C00001D7C0000564B4CF295
:1001C000205210B51A804DF628121A8000BF00BFC9
:1001D00007F028FD514B4FF010621A60504A9A60A8
:1001E000504ADA60504A136813F4807304D14F49BF
:1001F0000B604FF4A85313604D4B1A78110703D5C9
:100200001A7842F008021A704A4B4B492A221A7097
:100210004A4A4B4B8B4204D252F8040F43F8040B6A
:10022000F8E7484B484900228B4202D243F8042B9E
:10023000FAE7464A46480023114650F8234042F860
:10024000234001336F2BF8D1424B434A802003F8FF
:10025000010B9342FBD1414B1960414B8A221A702A
:10026000A3F5805324225A70A0221A709A7992071B
:10027000FCD59A79D406FCD43A4B19469A7902F007
:100280000C02082AFAD103221A7140225A718B7982
:100290009806FCD5334B9A795106FCD5324A33493E
:1002A00011600221516020221A702E4A937903F0C6
:1002B0000C030C2BFAD12E4B2E4A1A602E4B2F4AD0
:1002C0001A6000225A60072243F8042C2C4AC3F813
:1002D0000C2D62B607F092FD144B1B68DA0705D5AA
:1002E000284807F01FFD284B284A1A60284B1B7826
:1002F0005B0609D5244C254B22689A4204D121483B
:1003000007F010FD002323600DF058FE07F090FC6D
:1003100000F0F6F8FEE700BF0E20054030800440F4
:10032000823F04000100002B10D0034014D0034092
:1003300002D0074000E007400892FF1F3C7901000F
:100340002087FF1F0892FF1FA49EFF1F0082FF1F30
:100350000000000000E400E05FE400E008ED00E0E1
:100360000050064000400640448004400000030165
:1003700004800440C010050014E000E0FF76010096
:1003800000002020000000001CE00340A5C3945A98
:1003900000F00740FFFFFFFFFFFFFFFFFFFFFFFF32
:1003A000FFFFFFFFFFFFFFFFFFFFFFFFFFFFFFFF5D
:1003B000FFFFFFFFFFFFFFFFFFFFFFFFFFFFFFFF4D
:1003C000FFFFFFFFFFFFFFFFFFFFFFFFFFFFFFFF3D
:1003D000FFFFFFFFFFFFFFFFFFFFFFFFFFFFFFFF2D
:1003E000FFFFFFFFFFFFFFFFFFFFFFFFFFFFFFFF1D
:1003F000FFFFFFFFFFFFFFFFFFFFFFFFFFFFFFFF0D
:10040000FFFFFFFFFFFFFFFFFFFFFFFFDEF9FFFF23
:1004100010B5054C237833B9044B13B10448AFF33E
:1004200000800123237010BD0892FF1F0000000010
:100430004C6C010008B5034B1BB103490348AFF3F3
:10044000008008BD000000000C92FF1F4C6C0100F2
:1004500070B5054655F8044FA54208D00E46A06871
:10046000036831461B6898472468A542F7D170BDE0
:1004700038B5054655F8044FA54206D0A068036874
:100480005B6898472468A542F8D138BD03681A4ACA
:100490005B6893422DE9F04107462BD1054655F89C
:1004A000044FAC4206D0A06803685B689847246894
:1004B000A542F8D1DFF844803E1D3B7CA3B93B68E0
:1004C0001C6800F04DF9444505460FD17C68B442E4
:1004D000F3D0A068036829461B6898472468A642A1
:1004E000F7D13B7C002BEAD0BDE8F08101463846CD
:1004F000A047E2E79847DDE77104000051040000DF
:1005000010B513490A7882B001AC52B9204601F007
:1005100031FE0198FFF7BAFF019810B103685B69DB
:10052000984720460A4902F0DBFB0198FFF7AEFF2F
:10053000019810B103685B699847002002B010BDB4
:10054000019810B103685B6998470BF0FBF8F7E777
:10055000CC92FF1F70B5044608460D460EF0B0FC65
:1005600023680246294620465B68BDE8704018476C
:1005700010B50AF033FB70B1044619491948FFF76A
:10058000E9FF616817480B782A2B08BF0131FFF794
:10059000E1FF0BF00BFA14491248FFF7DBFF11489B
:1005A00008F034FDFEE7012910D10BF003F80368D1
:1005B0009B6898470D4904460A48FFF7CBFF214640
:1005C0000848FFF7C7FF0BF035F8E8E70AF0F2FF3D
:1005D0000BF030F8E3E70BF02DF80BF0B3F800BFA9
:1005E00014410100749CFF1F2C4101004041010097
:1005F00008B50821034808F045FA034808F006FD4D
:10060000FEE700BFA0410100749CFF1F084A094992
:1006100008B513681844884202D81060184608BD0F
:100620000DF0C6FC0C2303604FF0FF33184608BDE5
:100630009C87FF1F0070002008B50A460346024948
:10064000024808F0FBFCFEE7F8400100749CFF1F25
:1006500008B519461046FFF7EFFF00BF704700BF0F
:100660002DE9F047224A234D2349244B92B01268CA
:1006700006AF25F47F6525F00F058F428046A3EB7A
:100680000505A2EB0309A1EB020A01F580563C46E1
:100690000BD91B4A0B681268934203D025E0086807
:1006A000984220D104318C42F9D8341B07F108005C
:1006B0000EF0CAF807F1070CA6EB0C064FF48051B8
:1006C0000594CDE903167C6AB96ACDF808A0CDE996
:1006D00000414B462A4640460A4902F041FE303767
:1006E000BD46BDE8F087741AE0E74FF48054DDE7BB
:1006F0009C87FF1F2087FF1F00700020A49EFF1F04
:100700002492FF1F4C410100014B024A1A607047BE
:100710000CED00E00400FA050B460146184607F010
:10072000B9B900BF0B460146184607F0D7B900BF5C
:1007300080B4084A084B0949116000AFA7F1400294
:100740009A4203D943F8041B9342FBD3BD4680BCB5
:10075000704700BF2492FF1F00700020BABAAFFAA2
:1007600072B60B4B0B4A0C491B681268096862B6DB
:10077000490102D5322B88BF0132C3F5BB3340F6A5
:10078000B830FF3300FB02F000EB5310704700BF9E
:1007900018E000E0509BFF1F04ED00E0034B82B027
:1007A0001B680193019802B0704700BF509BFF1F68
:1007B000044B1A68824203D0034A18600023136076
:1007C000704700BF3492FF1F2C92FF1FF8B51C4DDD
:1007D0002B7804466BB31B4B1B4ED3F800C01B4F4A
:1007E00056F83C203B681344E11A002920DBA01A8C
:1007F000C01A002100E02B460446002C01F1010143
:10080000A0EB020002EB0305F5DA3B6081B1104B6F
:1008100006EBCC061A687168501C1860085C8A5C8C
:1008200000B91860312A0CBF0A4B0B4B20221A600A
:10083000F8BD01210D2007F08DFA01232B70CAE7C6
:100840002892FF1F3492FF1F2487FF1F3092FF1F43
:100850002C92FF1F84F00F4088F00F4001F03EB94A
:1008600000F062BE70B506460069094B336010B1F6
:1008700003689B689847354655F8040FA84205D091
:1008800004680AF0E7F9AC422046F9D1304670BD61
:10089000C841010038B5D0F8C0312A4D5B6803F17A
:1008A000604303F5644340221A700446D0F8C00147
:1008B0004268531103F13823403301219B0002F0B9
:1008C0001F0201FA02F21A602B68D4F8BC21002141
:1008D00043F400232B6011709170D4F8B8310233C7
:1008E00010F8230007F036FA94F8B031CBB1D4F801
:1008F000B831D4F8BC21DB0003F0380343F0070320
:10090000112153715170D4F8AC3163F03F03DBB265
:100910001371052007F024FAD4F8BC311E22DA70D6
:1009200038BDD4F8B831D4F8BC2103F0070343F044
:100930003803112153715170D4F8AC31C3F13F0326
:10094000E3E700BF3480044070B5064600690B4BF6
:10095000336010B103689B689847354655F8040F1B
:10096000854205D004680AF075F9A5422046F9D100
:10097000304614210AF0AEFF304670BDC841010078
:1009800070B50646D0F8B4210C4940690C4B0D4CAB
:1009900031600021746043F8221010B103689B6835
:1009A0009847354655F8080FA84205D004680AF064
:1009B00051F9AC422046F9D1304670BDE8480100FB
:1009C0003C92FF1FC8410100A0F10400FFF7D8BF0F
:1009D00070B50646D0F8B4210F4940690F4B104C52
:1009E00031600021746043F8221010B103689B68E5
:1009F0009847354655F8080FA84205D004680AF014
:100A000029F9AC422046F9D130464FF4E2710AF0A0
:100A100061FF304670BD00BFE84801003C92FF1FF7
:100A2000C8410100A0F10400FFF7D2BF2DE9F04159
:100A30000546144600F018FF304BD4F80CE020793E
:100A400021682F4E2B60002220331446C5F8A421C4
:100A500085F8A82194466B60C5F8ACE185F8B00133
:100A60000B223046002301E050F8042B914203D1C1
:100A7000984627464FF0010C0133062BF4D1013480
:100A8000032C06F1200602D056F8042CE9E7BCF14D
:100A9000000F17D01B4B53F82720CAB9BEF13F0FE8
:100AA00013D87A011849C5F8B47188188A58C5F85E
:100AB000C001C5F8B88143F82750C5F8BC212846C5
:100AC000BDE8F081114802F0E7FD114802F0E4FDB5
:100AD000D2F8B8310C4C0F4803EBC70302333A4647
:100AE00054F8233002F0D8FD0B4B2B6028462033FE
:100AF00040F8043FFFF7B6FE0AF024FE0C43010065
:100B0000DC4101003C92FF1FD04101003042010056
:100B1000B042010060420100E8480100F8B5936866
:100B200004461BB1002303602046F8BD4FF4E27079
:100B300015460E460AF070F82A4631460746FFF77A
:100B400075FF27602046F8BD38464FF4E2710AF081
:100B5000C1FE0AF0F7FD00BF144B70B51D688DB1E2
:100B6000134B1C78FFF7FCFD95F8A831E4B206465C
:100B70000BB1A30710D404F00504052C03D00C4BD3
:100B80001E221A7070BD012385F8A831084BC5F8E4
:100B9000A4611E221A70F5E7D5F8A4112846721A2E
:100BA00000F080FE002385F8A831E4E73C92FF1FA7
:100BB00003300740144B70B55D688DB1134B1C7842
:100BC000FFF7CEFD95F8A831E4B206460BB1A307B6
:100BD00010D404F00504052C03D00C4B1E221A700F
:100BE00070BD012385F8A831084BC5F8A4611E2209
:100BF0001A70F5E7D5F8A4112846721A00F052FED3
:100C0000002385F8A831E4E73C92FF1F0B30074032
:100C1000144B70B59D688DB1134B1C78FFF7A0FD88
:100C200095F8A831E4B206460BB1A30710D404F03E
:100C30000504052C03D00C4B1E221A7070BD012335
:100C400085F8A831084BC5F8A4611E221A70F5E793
:100C5000D5F8A4112846721A00F024FE002385F866
:100C6000A831E4E73C92FF1F13300740034A044BCE
:100C70001068044958601360196070473892FF1F6C
:100C80004892FF1F1D0B000000F028BF00F04CBC75
:100C9000F8B5D0F8AC41354E742707FB04F7F319CB
:100CA00005465A6853114FF0400C02F1604003F1C1
:100CB0003823634400F564409B00012102F01F02C9
:100CC00001FA02F280F800C095F8A4011A60002130
:100CD00007F040F8F359D5F8B471D5F8A4212449A8
:100CE00095F8A801C4EBC40E04EB8E043C441A34FE
:100CF00001EBC20156F824204F68120202F4E062B0
:100D0000042600244FF6FF713A601E60DC6499608F
:100D10005A6D42F001025A65F0B1D5F8B021511C6C
:100D200003EBC100142444604820013103EBC101EE
:100D300002EBD27248605210586ED20004219140EA
:100D400001435966586E082101FA02F202435A66BD
:100D50001A680A431A60F8BDD5F8B021511C03EB9C
:100D6000C100182444604420DFE700BF3443010081
:100D7000605B0100D0F8AC11D0F8B0310E4A70B50C
:100D8000064603EBC10340690C490D4C716000211C
:100D9000346042F8231010B103689B6898473546C9
:100DA00055F8080FA84205D0046809F053FFAC427B
:100DB0002046F9D1304670BD5092FF1FC841010056
:100DC000E8480100A0F10400FFF7D4BFD0F8AC114F
:100DD000D0F8B031114A70B5064603EBC103406943
:100DE0000F49104C71600021346042F8231010B19B
:100DF00003689B689847354655F8080FA84205D008
:100E0000046809F027FFAC422046F9D130464FF480
:100E1000DC710AF05FFD304670BD00BF5092FF1FCD
:100E2000C8410100E8480100A0F10400FFF7CEBF6F
:100E3000F0B583B00546144600F016FD2D4B216831
:100E40002079DFF8C4E02B60002220336B6085F846
:100E5000A801C5F8A411174694467646002491428D
:100E600030464FF0000307D1C5F8AC71C5F8B0416A
:100E7000C5F8B4314FF0010C0133032B06D050F804
:100E8000042F9142F0D00133032BF8D10134082C08
:100E900002D056F80C2FE2E70137032F02D05EF89C
:100EA000742FDAE7BCF1000F11D0D5F8B031DA07B2
:100EB0000DD461B1D5F8AC210F4803EBC20450F852
:100EC00024603EB940F82450284603B0F0BD0B48DA
:100ED00002F0E2FBD6F8A4010090094802F0DCFB26
:100EE000084B2B602846203340F8043FFFF7BAFC3C
:100EF0000AF028FC2C4501005092FF1F904401008D
:100F0000C4440100E84801003C43010030B5936847
:100F1000012B83B0044604D000230360204603B0B5
:100F200030BD4FF4DC70CDE9001209F075FEDDE94B
:100F300000120546FFF77CFF2046256003B030BD58
:100F400028464FF4DC710AF0C5FC0AF0FBFB00BF39
:100F50002DE9F843174E346D0CB9BDE8F883D6F887
:100F60000480DFF85490FFF7FBFB0025074614F0E0
:100F7000020F4FEA940415D059F825106B1CAA1CD7
:100F800006EBC30306EBC202084659B19B689268A0
:100F900092B2A8EB020189B2D21A791A92B2891AD6
:100FA00000F080FC0235082DE1D1024B00221A65C9
:100FB000BDE8F883008003405092FF1F2DE9F843FD
:100FC000184E356D0DB9BDE8F883D6F80480DFF80A
:100FD0005890FFF7C5FB0024074615F0020F09EBF8
:100FE00084014FEA950514D0096A631CA21C06EB24
:100FF000C30306EBC202084659B19B68926892B2DD
:10100000A8EB020189B2D21A791A92B2891A00F0B9
:1010100049FC0234082CE0D1024B00221A65BDE8DD
:10102000F88300BF009003405092FF1F2DE9F84362
:10103000184E356D0DB9BDE8F883D6F80480DFF899
:101040005890FFF78DFB0024074615F0020F09EBBF
:1010500084014FEA950514D0096C631CA21C06EBB1
:10106000C30306EBC202084659B19B68926892B26C
:10107000A8EB020189B2D21A791A92B2891A00F049
:1010800011FC0234082CE0D1024B00221A65BDE8A5
:10109000F88300BF00800B405092FF1F034A044BAF
:1010A0001068044958601360196070473892FF1F38
:1010B000B092FF1F0D0F0000704700BF0020704767
:1010C000704700BFD0F8840003685B68184700BF12
:1010D000D0F884000368DB68184700BFD0F884307C
:1010E000816A1A6818469369184700BF70B50646AA
:1010F0000069094B336010B103689B689847354617
:1011000055F8040FA84205D0046809F0A3FDAC42CD
:101110002046F9D1304670BD5C45010070B50F4BDB
:101120000F4A0446006944F80C3C03F130013C339B
:1011300044E902132260A4F10C0610B103689B6815
:10114000984754F8040FA04205D0056809F082FDC5
:10115000A5422846F9D1304670BD00BFA449010020
:101160005C45010070B50E4B0E4A0646C0693360FF
:1011700003F130013C33C6E90113F26010B103689A
:101180009B689847354655F8100FA84205D004686B
:1011900009F060FDAC422046F9D1304670BD00BF79
:1011A000A44901005C45010070B5114B114A044689
:1011B000006944F80C3C03F130013C3344E902136C
:1011C0002260A4F10C0610B103689B68984754F89C
:1011D000040FA04205D0056809F03CFDA542284651
:1011E000F9D1304688210AF075FB304670BD00BF4A
:1011F000A44901005C45010070B5104B104A064639
:10120000C069336003F130013C33C6E90113F26079
:1012100010B103689B689847354655F8100FA842EF
:1012200005D0046809F016FDAC422046F9D13046DD
:1012300088210AF04FFB304670BD00BFA449010071
:101240005C45010070B50F4B0F4A0446006944F835
:101250000C3C03F130013C3344E902132260A4F159
:101260000C0610B103689B68984754F8040FA0421D
:1012700005D0056809F0EEFCA5422846F9D13046B4
:1012800070BD00BFA44901005C45010070B50E4B64
:101290000E4A0646C069336003F130013C33C6E9AB
:1012A0000113F26010B103689B689847354655F802
:1012B000100FA84205D0046809F0CCFCAC422046CF
:1012C000F9D1304670BD00BFA44901005C45010062
:1012D00070B5114B114A0446006944F80C3C03F107
:1012E00030013C3344E902132260A4F10C0610B132
:1012F00003689B68984754F8040FA04205D005681E
:1013000009F0A8FCA5422846F9D1304688210AF008
:10131000E1FA304670BD00BFA44901005C45010000
:1013200070B5104B104A0646C069336003F13001B6
:101330003C33C6E90113F26010B103689B6898471B
:10134000354655F8100FA84205D0046809F082FC14
:10135000AC422046F9D1304688210AF0BBFA30462B
:1013600070BD00BFA44901005C45010070B5064690
:1013700000690B4B336010B103689B689847354692
:1013800055F8040F854205D0046809F063FCA542B6
:101390002046F9D1304614210AF09CFA304670BD3F
:1013A0005C45010038B504460D4600F031FC134B96
:1013B000134AC4F8842003F1300003F13C0103F127
:1013C0004802C4E90030C4E902120DB9204638BD14
:1013D0000C4B0D4A0D481821FFF73AF90C4B2360CE
:1013E000204603F1300103F13C024833C4E9011205
:1013F00040F80C3FFFF77AFE0AF0A4F96C450100B3
:10140000749CFF1FCC45010074460100D8450100C3
:10141000A4490100F8B5044619B100230360204631
:10142000F8BD882016460D4609F0F6FB32462946DF
:101430000746FFF7B7FF27602046F8BD38468821EA
:101440000AF048FA0AF07EF9174B70B5044653F8D3
:1014500021600D4600F0DCFB144BC4F88460013DB4
:1014600003F1300003F13C0103F14802022DC4E90D
:101470000030C4E9021201D8204670BD0C4B0D4A61
:101480000D482821FFF7E4F80C4B2360204603F1B8
:10149000300103F13C024833C4E9011240F80C3F2B
:1014A000FFF724FE0AF04EF9BC4501002446010076
:1014B000FC450100BC460100D8450100A4490100DB
:1014C000F8B54B1E022B044603D9002303602046C7
:1014D000F8BD88200D46164609F09EFB3246294687
:1014E0000746FFF7B1FF27602046F8BD3846882140
:1014F0000AF0F0F90AF026F930B40649064B0D68F7
:10150000064A074C07485A60C2E900450B6018605C
:1015100030BC7047B892FF1FC492FF1FBC92FF1FE0
:1015200015140000C1140000406910B10368DB68A5
:1015300018477047704700BF704700BFC36801334A
:10154000C360704710B5D82104460AF0C3F920469D
:1015500010BD00BF10B5102104460AF0BBF92046AB
:1015600010BD00BF30B5D0E9012383B05D1E044635
:10157000C0680190E81C8CBF00250125013318BF0D
:10158000012308460095034901F0EAFE0023E360C9
:1015900003B030BD3C4701002DE9F04FD0E90123F5
:1015A0000446581EC61C83B08CBF002001200D4687
:1015B000013318BF012300902649284601F0D0FED0
:1015C000236962699A423DD004F11006DFF89490D5
:1015D000DFF89480204F01E001F0C2FE206900F0A6
:1015E0000F0000EB4000800000F1080B2318B3440B
:1015F0000C3003213044D3F818A002F06BF8DBF86C
:10160000083089FB0321A1EBE371524603460091A8
:101610002846414601F0A4FE226963699A421EBF32
:10162000236901332361226963699A423946284656
:10163000D2D1E268094901F093FE0023E36003B0D0
:10164000BDE8F08F0649284603B0BDE8F04F01F031
:1016500087BE00BF504701005C4701009047010072
:10166000804701005655555560470100F0B50023ED
:1016700085B0CDE90233064600F1080701ADF269F5
:10168000336A9A4226D0F36903F01F0303EB430346
:1016900006EB8303243393E8070085E80700BFF3D4
:1016A0005F8FF369B4680133BC42F36107D0A0686F
:1016B000036829461B6898472468A742F7D17069D8
:1016C0000028DCD0036829461B689847F269336A12
:1016D0009A42D8D105B0F0BD426903460069121A9A
:1016E0000F2A06D918695A69904202D01A69013244
:1016F0001A615A691869121A0F2A03D9DA68013275
:10170000DA60704710B45C6907C904F00F0404EB99
:10171000440403EB8404183484E80700BFF35F8FAC
:101720005A6910BC01325A61DA680132DA607047D6
:1017300070B50E4A0E4B04460069261F44E901238A
:1017400010B103689B68984754F8040FA04205D075
:10175000056809F07FFAA5422846F9D130464FF4D2
:10176000D2710AF0B7F8304670BD00BFE8480100FA
:10177000C841010070B50E4A0E4B06464069C6E9E5
:10178000002310B103689B689847354655F8080F49
:10179000A84205D0046809F05DFAAC422046F9D1B0
:1017A00030464FF4D2710AF095F8304670BD00BF54
:1017B000E8480100C841010070B50B4A0B4B0446D4
:1017C0000069261F44E9012310B103689B6898470C
:1017D00054F8040FA04205D0056809F03BFAA54271
:1017E0002846F9D1304670BDE8480100C8410100E3
:1017F00070B50B4A0B4B06464069C6E9002310B191
:1018000003689B689847354655F8080FA84205D0ED
:10181000046809F01FFAAC422046F9D1304670BD89
:10182000E8480100C8410100F0B50D4B1C6883B0C9
:10183000154684B107460E4601E064685CB1236832
:101840002A46314601A89847019B002BF5D038461F
:101850003B6003B0F0BDA968024801F01DFF00BF66
:101860003892FF1FB048010030B40D4C8161002256
:1018700004F12005C0E90045C0E9042200F1080395
:10188000C0E90233C26100F12403026200F5D271A3
:10189000C3E901220C339942FAD130BC704700BF32
:1018A000E848010010B485B003460291016AC0699E
:1018B0000392091A1F29986912D804AA1C6A42F8CF
:1018C0000C0D04F01F0407CA04EB440403EB84046A
:1018D000243484E80700BFF35F8F1A6A01321A626A
:1018E00005B010BC704700BFF0B58368DFF85CC07E
:1018F0000779114E03EB430383B004460F485CF8AD
:10190000233001931546002F08BF3046236800900E
:101910000A4628460A4901F023FDA36823B9E26874
:101920000849284601F01CFD0749284603B0BDE8D8
:10193000F04001F015BD00BF8C4801008048010057
:1019400098480100904D01007C4801004487FF1F2A
:10195000F8B51446314A6168914208BF0C3401461B
:10196000064620681F4601F03BFD0546A8B13368D6
:10197000FF2B12D823692A4A934230D002F12B520E
:1019800002F5A31202F2973293420DD053B33846B8
:10199000244901F0E5FC002504E03846224901F025
:1019A000DFFC00252846F8BD00233371E3697BB1D5
:1019B0001E4A51688B420BD011698B4227D0D269E5
:1019C000934227D038461A4901F0CAFC0025E9E7BE
:1019D000A36A0022B2605BB91423F360E2E701233B
:1019E0003371E3E7384613491D4601F0B9FCD9E7E6
:1019F000606A06F10C0101F0F3FC10B1F3683F2BB3
:101A0000D0D938460C4901F0ABFC0025CAE70123C8
:101A1000B360C7E70223B360C4E700BF5E408B40FA
:101A200031036E1DCC4701009C4701004487FF1F16
:101A30000C480100B84701004C480100F8B549685E
:101A4000214DA942044617461E462ED01F4881420A
:101A500021D01F4B994201D00020F8BDD82009F0B9
:101A6000DBF800221B4B0360026147608660C260A6
:101A7000426100F1180300F1D801C3E901220C33DF
:101A80008B42FAD1236920611BB11A68184693680A
:101A900098470120F8BD2069002323610028F8D071
:101AA00003689B6898470120F8BD102009F0B4F83E
:101AB000236909494760002286600160C260206195
:101AC000002BE2D1E5E700BF64C1EA54954E5FE91F
:101AD0009E7703222C470100144701000B4B4A68F4
:101AE0009A4201D0002070478B6882699342F9D1F5
:101AF00010B5074A0C69944201D0002010BD18317E
:101B0000044A0430FFF79AFF10BD00BF7AF17989CB
:101B1000A276BF83D84801000B6833B1012B03D1F3
:101B2000002380F87C3070477047012380F87C30B8
:101B30004B68C0F880307047A0F10800FFF7ECBF99
:101B400090F87C302BB1D0F880208B6C9A4200D07A
:101B50007047036851F8042F1B6A0431184700BF0F
:101B6000A0F10400FFF7ECBF2DE9F041036B044640
:101B70000D463F2B204608D823685B6A984700280B
:101B8000236B30DB3F2BE56239D93F2B8CBF002321
:101B900001232646226A84F87830626756F8105F7F
:101BA000B54204F12C0714D0DFF8608004E0FFF7A1
:101BB000C7FF2D68AE420CD0AB681A681268424568
:101BC0003946A3F10400F2D0184690472D68AE4282
:101BD000F2D1E06918B1036839461B6898470023C1
:101BE0002363BDE8F0813F2BCFD8002BF9D0E16A09
:101BF00040F6B8326D1A9542C7DCBDE8F081E218B4
:101C00000133236382F83400B3E700BF611B000097
:101C1000134B70B50446016203F1080604F110018C
:101C200003F1380503F144005033C4E90150C4E91D
:101C300003312660616192E80300002504F124036A
:101C4000C4E90655502283E80300294604F12C001C
:101C50000CF0A4FD84F87C50C4F88050204670BD80
:101C60009C490100F0B50D4B1C6883B00D4684B152
:101C70000746164601E064685CB12368324629468F
:101C800001A89847019B002BF5D038463B6003B074
:101C9000F0BD2946024801F0FFFC00BFB892FF1FCB
:101CA0002449010010B40378144611B953B110BC93
:101CB0007047002BFBD00A4643680549204610BCFC
:101CC00001F04EBB1046034910BC01F049BB00BFF8
:101CD0008C4901007C49010038B54C1E033403D8FF
:101CE000032909D9002038BD53680E4A9B1A18BF32
:101CF00001230370012038BD01461D46012304461F
:101D000001F8043B106801F06BFB626820B1064BE0
:101D1000A2F596719942E6D92846044901F020FBC4
:101D2000002038BD954E5FE9D4C001004449010050
:101D300070B5054655F8044FA5420CD00E4602E09A
:101D40002468A54207D0A068036831469B6898477D
:101D50000028F5D070BD002070BD00BF70B50546ED
:101D600055F8044FA54208D00E46A06803683146D6
:101D7000DB6898472468A542F7D170BD4B68002BFB
:101D800046D02DE9F04706460F46CD1D4FF000081E
:101D900000F108090EE07368FE2B03D8F218013336
:101DA0007360147286F80841063D7A68EB1B9A420C
:101DB00055462BD96C78A4F120035E2B05F1010A5E
:101DC000E9D90D2C12D00A2C0CD0082C01D07F2C74
:101DD000E8D17368002BE5D0013BB3F5807F18D8BC
:101DE0007360DFE796F808310D2BDBD07368FF2BAB
:101DF00098BF9B19494698BF83F808803368C6F896
:101E000004803A685B6830469847CBE7BDE8F087C6
:101E10007047034B034A04481721FEF719FC00BF23
:101E20004C4C0100744C0100584C01000846FEF770
:101E3000CDBC00BF0D4B0E4A70B5A0F5887603F1FE
:101E400024017160044600693360226010B10368A8
:101E50009B68984754F8040FA04205D0056808F025
:101E6000F9FEA5422846F9D1304670BD284A010046
:101E70005C45010070B50E4B0E4A0546D0F82001B6
:101E80002B6024336B60C5F8102110B103689B6888
:101E90009847D5F8140105F58A76B04205D0046854
:101EA00008F0D8FEB4422046F9D1284670BD00BFE4
:101EB000284A01005C450100104B114A70B5A0F59D
:101EC000887603F124017160044600693360226062
:101ED00010B103689B68984754F8040FA04205D0DE
:101EE000056808F0B7FEA5422846F9D130464FF400
:101EF000967109F0EFFC304670BD00BF284A010022
:101F00005C45010070B5104B104A0546D0F8200121
:101F10002B6024336B60C5F8102110B103689B68F7
:101F20009847D5F8140105F58A76B04205D00468C3
:101F300008F090FEB4422046F9D128464FF496713D
:101F400009F0C8FC284670BD284A01005C45010024
:101F50002DE9F84F002A47D00E46002974D00546D7
:101F600050F8103FC3F14007191D9742084462D250
:101F7000144605F1140A40232B6131463A460CF011
:101F80000FFB2B69E41B3E4493BB402C504650D8BA
:101F900023462B61314622460CF002FB2B7A23BBF1
:101FA0002B6913B32B44DB7C0A2B1ED1D5F804908C
:101FB00001234F4685F8583057F8046FBE4205F1AB
:101FC0000C0807D0B068036841461B68984736681C
:101FD000B742F7D1D9F8100018B1036841461B6821
:101FE000984700232B6100E014462046BDE8F88F97
:101FF000D5F804B04FF00003D84685F8583058F8AB
:10200000047F474505F10C0907D0B86803684946C5
:102010001B6898473F68B845F7D1DBF8100018B146
:10202000036849461B6898470023402C2B615046A3
:10203000AED940279FE71344402B09D9054B064AE8
:1020400006481721FEF704FB0C462046BDE8F88F32
:1020500014469EE74C4C0100CC4C0100584C01004A
:1020600010B5042282B00DEB020104460020FEF7F9
:1020700053FB084B019A9A4202D0002002B010BDD7
:1020800021464FF47E720420FEF746FB012002B089
:1020900010BD00BFF803BEBA10B500F1F00304464E
:1020A00000F54471002243F8442B8B42FBD1002100
:1020B0004FF47E7220460CF071FB04220123C4F819
:1020C000D42384F8D8332046FFF7CAFF204610BD3A
:1020D00010B582B002A9084B41F8043D0446042221
:1020E0000020FEF71FFB21464FF47E720420FEF70E
:1020F00019FB02B010BD00BFF803BEBA08B500223C
:102100000270FFF7E5FFBDE80840FEF7FDBA00BF2B
:1021100010B582B00C46014601A800F0E1FD01981F
:1021200010B103685B699847012002B010BD012916
:102130000DD109F03FFA03689B6898470B490246A6
:10214000204601F00DF909F075FA0020EDE709F0DD
:1021500031FA2046064901F003F9F4E709F06AFA7A
:1021600009F0F0FA09F066FA09F0ECFA644A0100A5
:102170007C4A01002DE9F043074685B014208946CA
:10218000904608F049FD0646494B46F8043B054693
:1021900000233860C5E901664FF49670EB602B743C
:1021A00008F03AFD0446434BC0F8249103F1340192
:1021B00003F1240004F58A72236000236060C4F8F0
:1021C0002851C4F810110120C4F81421C4F81821B2
:1021D000A360C4F81C31C4F82031FEF7E9FA0C20E2
:1021E00008F01AFD3146846009F03CFDEB683E685A
:1021F0000133EB604146002302AA01A80393029336
:10220000FFF730FD0C20019D06F1040808F004FDE5
:10221000019B836041460023019309F023FDF3688D
:1022200001980133F36010B103685B69984705B307
:1022300005F104080C20D4F8146108F0EDFCC0F896
:102240000880314609F00EFDD4F81C310133C4F882
:102250001C310C2004342E6908F0DEFC8460314609
:1022600009F000FDAB6938460133AB6105B0BDE84C
:10227000F083A846DEE7019810B103685B699847D0
:10228000386810B103685B69984709F05BFA236806
:1022900020465B699847F3E704F58870FEF726FF50
:1022A00020464FF4967109F015FBE9E7E8E700BF17
:1022B000FC490100284A01002DE9F0410546074686
:1022C00055F8044FA5420E4607D0A0680368314672
:1022D0001B6898472468A542F7D1386928B103687C
:1022E00031461B68BDE8F0411847BDE8F08100BFEA
:1022F0002DE9F04314460A68944289B001D8072CAE
:1023000006D92C49109801F02BF809B0BDE8F083EC
:102310006E460D4607461A463046109B2146FFF78B
:1023200017FB0028F1D02B689C421DD196E80F00C6
:102330004FEA041905EB0906043604F1010CC5F84F
:1023400000C086E80F0038461099FFF7E1FE50B351
:102350001949109801F004F809F1040028442146B5
:10236000109AFFF7C1FAD0E74FEA041905EB090804
:1023700008F1040898E80F000DF1100C8CE80F002C
:1023800096E80F0088E80F009CE80F0086E80F0031
:1023900038461099FFF7BCFE0028D9D196E80F0007
:1023A00088E80F00B1E72B68002BAED0013B2B6013
:1023B000ABE700BF144C0100404C01002DE9F04791
:1023C00014460A68944298B001D8012C06D94449B1
:1023D000209800F0C5FF18B0BDE8F0870D4606460E
:1023E0001A466846209B214603F0F0FB0028F2D0F5
:1023F0002B689C4229D1EC46BCE80F004FEA440808
:1024000008EB040705EB0717043704F1010EC5F8C4
:1024100000E00FC7BCE80F000FC79CE80F0087E87B
:102420000F0030462099FFF773FE002851D02D4948
:10243000209800F095FF08EB040005EB0010043035
:102440002146209A03F086FBC5E74FEA440808EBD3
:10245000040705EB071707F10409B9E80F000DF1B0
:10246000300EAEE80F00B9E80F00AEE80F0099E8B3
:102470000F00EC468EE80F00BCE80F000437BA46A8
:10248000AAE80F00BCE80F00AAE80F009CE80F00C4
:102490000DF1300A89E80F00BAE80F00E946A9E813
:1024A0000F00BAE80F00A9E80F009EE80F008CE8C3
:1024B0000F0030462099FFF72BFE0028B7D16C465D
:1024C0000FCC0FC70FCC0FC794E80F0087E80F00A1
:1024D00081E72B68002B3FF47EAF013B2B607AE74E
:1024E000144C0100404C01002DE9F04314460A68E9
:1024F0009442A3B001D8072C06D92F492A9800F09E
:102500002FFF23B0BDE8F08322AE002246F8882DCD
:102510000D4607461A4630462A9B214603F0CEFB5D
:102520000028EED02B689C424FEA04191DD109EB1C
:102530000400631C05EB8000314604302B6044220C
:102540000CF02EF82A993846FFF7E2FD70B31B49CC
:102550002A9800F005FF09EB040005EB8000043029
:1025600021462A9A03F070FBCBE709EB040805EB40
:10257000880808F104084146442211A80CF010F81C
:102580004422314640460CF00BF811A94422304653
:102590000CF006F82A993846FFF7BAFD0028D6D184
:1025A0003146404644220BF0FBFFAAE72B68002B84
:1025B000A7D0013B2B60A4E7144C0100404C010064
:1025C0002DE9F04714460A6894428CB001D8072CD4
:1025D00006D93C49149800F0C3FE0CB0BDE8F08762
:1025E0000D4606461A466846149B214602F072FACA
:1025F0000028F2D02B689C4226D1EC46BCE80F00A4
:102600004FEA440808EB040705EBC707043704F159
:10261000010EC5F800E00FC79CE8030087E803003F
:1026200030461499FFF774FD002844D026491498C9
:1026300000F096FE08EB040005EBC00004302146D4
:10264000149A02F0F9F9C8E74FEA440808EB0407C6
:1026500005EBC70707F10409B9E80F000DF1180EE3
:10266000AEE80F0099E80300EC468EE80300BCE8F2
:102670000F000437BA46AAE80F009CE803000DF1EA
:10268000180A89E80300BAE80F00E946A9E80F0034
:102690009EE803008CE8030030461499FFF738FDEC
:1026A0000028C3D16C460FCC3D460FC594E803000B
:1026B00085E8030091E72B68002B8ED0013B2B604F
:1026C0008BE700BF144C0100404C01002DE9F043A2
:1026D00014460A68944283B001D8032C06D92A49CB
:1026E0000A9800F03DFE03B0BDE8F0836F460D464A
:1026F00006461A4638460A9B2146FFF7EDFA00289F
:10270000F1D02B689C424FEAC4081AD097E8030026
:1027100008F1040305EB0309A84408F10408EA5C86
:10272000D9F80430019388E8030030460A998DF8FF
:102730000020FFF7EDFCE0B997E8030088E803000C
:10274000D1E797E8030005EB08030433621C2A6015
:1027500083E8030030460A99FFF7DAFC28B92B68B2
:10276000002BC0D0013B2B60BDE708F1040805EB4E
:10277000080906490A9800F0F3FD0A9A21464846DE
:10278000FFF790FAAFE700BF144C0100404C010086
:10279000F0B5054683B00846144600F07BFE41685C
:1027A00021B306683378232B20D08F4F8268B9423B
:1027B00000F10C0300F00D811FD98C4881425DD0DF
:1027C00032D98B48814200F08D8000F1276000F5FE
:1027D000D92000F2D620814272D08648814200F092
:1027E0008B8032468449204600F0BAFD204683495A
:1027F00000F0B6FD012003B0F0BD8148814200F039
:10280000828028D97F48814248D000F1C15000F52C
:102810008C2000F2E9308142E3D1009405F1880177
:102820002846FFF7CBFDE1E7774B99423DD0774B48
:102830009942D6D14FF47E72002128460BF0AEFFAC
:1028400004220123C5F8D42385F8D83370492046E3
:1028500000F086FDCAE7A0F19060A0F54F30A0F52A
:10286000D870814236D128462146FFF751FC002816
:10287000BCD06849204600F073FDB7E721462846E2
:10288000FFF746FC0028B1D0012328462B70FFF744
:102890001FFC6149204600F063FDA7E7009405F1A5
:1028A000EC012846FFF720FEA0E72846FFF7D8FBFB
:1028B000002800F094805949204600F051FD95E72A
:1028C00021462846FFF724FC00288FD001232B70D7
:1028D000002090E700F5090000F50040FC3081423F
:1028E0007FF47FAF511C08BF0022009405F575717D
:1028F0002846FFF7EBFE79E7009405F5447128467A
:10290000FFF75EFE72E7D5F888306A6844492046D2
:1029100000F026FD4349204600F022FD6B686BB1B4
:1029200005F108070026314638462246FEF7DCFF4F
:102930006B6801369E4207F11007F4D3D5F8883052
:1029400073B105F18C07002631463846224603F064
:1029500001F9D5F8883001369E4207F13007F3D3EC
:10296000D5F8EC3073B105F1F00700263146384652
:10297000224603F069F9D5F8EC3001369E4207F1A2
:102980004407F3D3D5F8D43373B105F57677002631
:10299000314638462246FFF785F9D5F8D43301365B
:1029A0009E4207F10807F3D3D5F81033002B3FF40C
:1029B0001DAF05F54577002631463846224602F020
:1029C0003BF8D5F8103301369E4207F11807F3D3D0
:1029D0000CE70094291D2846FFF78AFC06E71249F8
:1029E000204600F0BDFC01E77AF179898CFA1DBD23
:1029F0000ABB10D70B1377D49C4B0100084C010085
:102A000022A6CF469BE8C74A5EA49898D41865A131
:102A1000D84A0100844B0100444B0100EC4A0100FC
:102A2000984A0100D04A0100184B010070B598B0D7
:102A300000F58873044604921E4D0293D0F82401D9
:102A40000195002301AA17938DF80C301693059376
:102A5000FFF79EFE18B9D4F8283101221A74059B9D
:102A600001950BB918B070BD029E012335468DF853
:102A70005C3055F8044FAC4207D0A068036804A945
:102A80001B6898472468A542F7D130690028E9D02F
:102A9000036804A91B68984718B070BD059B019591
:102AA00033B1012304A902988DF85C30FFF704FCD0
:102AB00008F048FE1C4A010070B598B000F5867316
:102AC000044604921E4D0293D0F820010195002384
:102AD00001AA17938DF80C3016930593FFF758FE53
:102AE00018B9D4F8243101221A74059B01950BB949
:102AF00018B070BD029E012335468DF85C3055F844
:102B0000044FAC4207D0A068036804A91B6898472B
:102B10002468A542F7D130690028E9D0036804A9E8
:102B20001B68984718B070BD059B019533B1012310
:102B300004A902988DF85C30FFF7BEFB08F002FE96
:102B40001C4A010070B5046884420DD00646A36893
:102B50002568184613B11B685B699847204608F042
:102B600079F8B5422C46F2D170BD00BF10B5044BC8
:102B7000044640F8043BFFF7E5FF204610BD00BFC8
:102B8000FC49010010B5064B044640F8043BFFF732
:102B9000D9FF2046142108F09DFE204610BD00BF3D
:102BA000FC4901000148FFF777BA00BFCC92FF1F34
:102BB0002DE9F04FD0E9005AAAEB05039B1083B032
:102BC00006468846A1EB050B33D05F00BB4233D9E4
:102BD0006FF003073846019208F01EF8D6E9005A54
:102BE000019A81460744A8EB050419EB0B0F1CBFA3
:102BF000136849F80B30A84504D0224629464846B8
:102C00000BF068FD231DC2454B44AAEB080405D018
:102C10001846414622460BF0C3FC03461C4415B13E
:102C2000284608F017F8C6E90094B76003B0BDE87D
:102C3000F08F0127BF00CDE7B7F1804FC8D2002F3A
:102C4000F8D1B9465C46D0E72DE9F04FD0E9005AFB
:102C5000AAEB05039B1083B006468846A1EB050B43
:102C600033D05F00BB4233D96FF00307384601927F
:102C700007F0D2FFD6E9005A019A81460744A8EB33
:102C8000050419EB0B0F1CBF136849F80B30A8455E
:102C900004D02246294648460BF01CFD231DC245A0
:102CA0004B44AAEB080405D01846414622460BF0D7
:102CB00077FC03461C4415B1284607F0CBFFC6E954
:102CC0000094B76003B0BDE8F08F0127BF00CDE7E7
:102CD000B7F1804FC8D2002FF8D1B9465C46D0E793
:102CE0002DE9F04F8FB00646009014200F46019159
:102CF00007F092FF05465D4B45F8043B334604461A
:102D00001860002340F26C50C4E90155E36023745D
:102D10007E6807F081FF3146824604F04DF90C20B1
:102D200007F07AFF2946C0F808A008F09BFFE36887
:102D30007A6800250133E360CDE908550A95002A39
:102D400046D0019BA94603F108070AF1040B0BE0EA
:102D500009B1079B0B6004310991019B5B68013548
:102D60009D4207F1100733D2009B3A4629460BA833
:102D70001E68FEF759FD0C200B9CD6F8048007F066
:102D80004BFF0B9B83604146CDF82C9008F06AFF07
:102D9000F3680B980133F360079418B103685B691B
:102DA0009847079CA6680C2007F036FF3146C0F80C
:102DB00008B008F057FFDDE909122369914203F1D9
:102DC00001032361C4D107AA08A8FFF7F1FEC4E7F5
:102DD000019BD3F8EC300024CDE90B440D94002B7B
:102DE00046D0019B03F1880803F1F0070BE001B125
:102DF0000D6004310C91019BD3F8EC3001349C42FE
:102E000007F1440734D2009B94201E6807F004FFAA
:102E100043463A462146054602F03AFC0C2006F1AC
:102E2000040907F0F9FE8560494608F01BFFF368C6
:102E30000133F3600C20DAF80C6005F1040907F0A7
:102E4000EBFE3146C0F8089008F00CFFDDE90C12EB
:102E5000DAF81430079501339142CAF81430C6D11C
:102E600007AA0BA8FFF7F0FEC5E700BFFC49010069
:102E7000019BD3F888304BB30025009B84201E684B
:102E800007F0CAFE2946044600F0E4FE0C20371D78
:102E900007F0C2FE8460394608F0E4FEF3680133AF
:102EA000F3600C200434DAF8206007F0B5FE84608B
:102EB000314608F0D7FE019ADAF82830D2F8882097
:102EC000013501339542CAF82830D6D3102007F0D7
:102ED000A3FE00F11001029002460591002302B109
:102EE000136004329142FAD1019B0492D3F8D423A7
:102EF0007AB1019B002427461D4603F5767695F8A6
:102F0000D833002B40F072810134944205F108055A
:102F1000F5D3019BD3F81033002B00F0A680049B5F
:102F2000029A9B1A9B100393019B00271D4603F5F1
:102F30004578D5F81413002900F02681022940F0C5
:102F40007F81DDE90B23D5F81C139B1AB1EBA30F8E
:102F500080F0798152F8216006B1083607A808F19F
:102F60001402D5F8241302F0E3FD009B079CD3F86C
:102F7000009044B300230C20079309F1040B07F0E1
:102F80004BFE8460594608F06DFED9F80C300133D1
:102F9000C9F80C300C20D6F8049004F1040B07F0AB
:102FA0003BFEC0F808B0494608F05CFEF36807989D
:102FB0000133F36004F1080610B103685B699847B8
:102FC000009BD3F8009007A84246394601F0EEFC7A
:102FD0000C20079C09F1040B07F01EFE079B836081
:102FE00059460023079308F03DFED9F80C300798A6
:102FF0000133C9F80C3010B103685B699847002CA5
:1030000000F0F28004F1340B0C20D6F8049007F0A5
:1030100003FEC0F808B0494608F024FEF368013307
:10302000F360D5F82013039B994280F0F980029B4E
:1030300053F82160002E00F0F3800C200436D4F801
:10304000089007F0E9FD8660494608F00BFE019AFA
:103050002369D2F8102301370133974205F118058F
:1030600008F118082361FFF464AF102007F0D4FDC5
:10307000049B1946029BA1EB030800245FEAA80801
:103080008146C0E90044C0E902445DD0A3461E1F4A
:1030900056F8045F8DB1009BC6F800B01F680C2085
:1030A00007F1040A07F0B8FD8560514608F0DAFD23
:1030B000FB680133FB6049F8245001344445E7D1F3
:1030C000D9F80050002D3FD0009B4FF4A6701E6829
:1030D00007F0A2FD3146044601F076F80C20371DBA
:1030E00007F09AFD8460394608F0BCFDF3680133AF
:1030F000F3600C20D4F814612F1D07F08DFD87605C
:10310000314608F0AFFDD4F81C31D4F82861013302
:103110000C20C4F81C3105F1080707F07DFD87601D
:10312000314608F09FFDD4F830310133C4F8303116
:103130000C2004342E6907F06FFD8460314608F0DE
:1031400091FDAB690133AB61484607F083FD049BF9
:10315000029A934209D0029C059D54F8040B10B1C9
:1031600003685B699847A542F7D1029807F072FDA2
:103170000B9808B107F06EFD089808B107F06AFDDA
:1031800000980FB0BDE8F08F009B38201E6807F054
:1031900043FD42463946044601F0E8FB5F4B63635A
:1031A000A3F134022260A3F1100262600C2006F148
:1031B000040907F031FD8460494608F053FDF368C7
:1031C0000133F3600C20DAF80C6004F1340907F0E5
:1031D00023FDC0F80890314608F044FDDAF81430B9
:1031E0000133CAF814301CE7A3460DE706EBC4020E
:1031F000214607A8FEF736FD029A079B52F82400E5
:10320000079742F8243038B103685B6998470798FC
:1032100010B103685B699847019BD3F8D42373E628
:103220003A463F4800F038FA029C059B9C420DD07C
:1032300054F8040B0028F8D003685B699847F4E75A
:10324000384800F029FA384800F026FA029807F0CA
:1032500001FD0B9808B107F0FDFC089808B107F0D4
:10326000F9FC009B186810B103685B69984708F087
:1032700069FAEEE70B980028EFD003685B6998477E
:10328000EBE7EAE7DAF8003050465B699847E8E791
:103290002B6828465B699847DBE72846942108F0AD
:1032A00019FBD6E7236820465B699847484607F034
:1032B000D1FCB9E720464FF4A67108F00BFBF5E707
:1032C000F4E72B6828465B699847EFE723682046B8
:1032D0005B699847A8E72046382108F0FBFAA3E786
:1032E000504640F26C5108F0F5FABAE723682046E0
:1032F0005B6998470798002896D003685B699847F0
:1033000092E7AEE7236820465B699847A1E720462D
:10331000842108F0DFFA9CE7ECE7EBE77C52010040
:10332000684D01004C4D01002C4D01004068704774
:1033300010B5034B0360044607F05EFC204610BD49
:10334000C04D010010B5054B0360044607F054FC66
:103350002046082108F0BEFA204610BDC04D0100ED
:103360000EB430B582B005AB054653F8042B0A48BD
:1033700001934FF480710CF08BFF041E05DD2B6868
:1033800005491B68284622469847204602B0BDE8FA
:10339000304003B0704700BF509AFF1F0368A3B1CD
:1033A0001A78511E1F2904D813F8012F511E1F2906
:1033B000FAD992B15A78202A03F1010103D911F800
:1033C000012F202AFBD812B902601846704700224C
:1033D00001F8012B01601846704702601346F4E7BC
:1033E000034608B103780BB91846704710B582B090
:1033F0000C460A2201A90CF0CBFE019B2060187834
:10340000B0FA80F0400902B010BD00BF034608B119
:1034100003780BB91846704710B582B00C4601A965
:103420000CF0C2FD019B20601878B0FA80F04009D2
:1034300002B010BD70B582B004460D4616460BF0C2
:103440003FFD204484420ED010F8013C303B092B54
:103450000CD8431E04E013F8012D303A092A05D890
:10346000A3421846F7D1002002B070BD0378002BAC
:10347000F9D028600378002BF5D00A2201A90CF0BE
:1034800087FE019B30601878B0FA80F0400902B0E6
:1034900070BD00BF2DE9F04F85B00DF1100BDFF8C6
:1034A000F4914BF80C0D5846FFF778FF734E744DAE
:1034B000744F4FF00008044600285CD0B8F1400F6C
:1034C00059D00378232B56D04A4603A949F8080C53
:1034D000FFF7B0FF824600285CD0039B23221978B7
:1034E0001A70DDF80CA00091AAEB040C0CF101019C
:1034F000032940F2BF80ACF1030C4FEA9C0C04EBB3
:103500008C0E201F002350F8042F06FB02F24FEA16
:10351000724205FB02F253404FEAF34303EB83038D
:1035200086453B44EFD10CF1010C4FEA8C0C01F0C5
:103530000302022A7AD0032A64D0012A7AD0524A9E
:103540004B4083EA134302FB03F3504A83EA5333AD
:1035500002FB03F383EA134349F8043C009B8AF817
:1035600000305846FFF71AFF08F1010809F10C096D
:1035700004460028A2D1464808EB48084FEA8808CC
:10358000002300EB080240F80830C2E9013305B01F
:10359000BDE8F08F20460BF093FC032867D9011F8C
:1035A0008908534604EB810C221F52F804EF06FBF6
:1035B0000EFE4FEA7E4E05FB0EFE8EEA03034FEA37
:1035C000F34303EB830394453B44EED1013189007F
:1035D00000F00302022A46D0032A3AD0012A2BD057
:1035E000294A434083EA134302FB03F3274A83EA51
:1035F000533302FB03F383EA13434FF0FF3249E9ED
:103600000132AEE704EB0C0E9EF8022012049EF885
:10361000010042EA002014F80C20424006FB02F2AE
:103620004FEA724205FB02F2534088E7002204EBA6
:103630000C0EECE70020EEE74FF0000C625C82EA33
:103640000C0206FB02F24FEA724205FB02F2534003
:10365000C6E704EB010C9CF8022012049CF801C0A0
:1036600042EA0C2CEAE7002204EB010CF6E7534691
:103670005146ADE700239C4659E700BF512D9ECC33
:103680009335871B646B54E66BCAEB8535AEB2C2CB
:10369000C496FF1FCC96FF1F0FB430B583B006ABA6
:1036A000084C53F8042B0193802120460CF0F0FDC8
:1036B000082007F083FE044D044A0549C0E9005480
:1036C00008F058F9D099FF1FC04D010031330000B8
:1036D000AC4D010070B504460D46FDF75FF840F6AD
:1036E000B83324689D4203FB1044064694FBF5F46E
:1036F0001BD01CDD1549EA1781FB0501C2EBA112A5
:1037000003FB1253EBB1284609F0F0F801461048CC
:1037100009F0F4F90546304609F0E4F80146284678
:1037200009F038F909F038FB0646A01970BD93FB83
:10373000F5F205FB1233002BE5D102FB06F6A019CA
:1037400070BDB6FBF2F6A01970BD00BFF119760589
:1037500000803B45704700BF806910B10368DB689B
:1037600018477047F8B54B68C269934200D0F8BD5E
:10377000026A044688686AB1013282420AD0002394
:10378000236284F82830636284F82930E36263633B
:103790002364F8BD94F8285020620A7B2DB1002ADA
:1037A000EDD0002384F82830F8BD606A11280DD0D0
:1037B00052B9013011286062D9D101226FF00103A2
:1037C00084F828202363F8BD6562F8BD94F8295079
:1037D000E06A42EA45020130D2B2082884F8292082
:1037E000E062C4D1206BC50744BF012584F828508E
:1037F0000028656B2EDBA84207DA266C3F2E04D822
:10380000A7190136266487F8442045F001050130E8
:1038100004350022A842206384F82920E262A6D160
:103820000A68A2632646E36356F80C5FB54204F1CA
:10383000380707D0A868036839461B6898472D6881
:10384000AE42F7D1A069002899D0036839461B68B9
:10385000984794E7861CF600B24015436563D4E7A9
:10386000A0F10400FFF77EBF704700BF704700BFA4
:10387000C3680133C360704710B54FF49B610446C1
:1038800008F028F8204610BD10B51021044608F0B5
:1038900021F8204610BD00BF30B5D0E9012383B028
:1038A0005D1E0446C0680190E81C8CBF0025012500
:1038B000013318BF0123084600950349FFF750FD67
:1038C0000023E36003B030BD3C4701002DE9F04F19
:1038D000D0E901230746581EC41C8DB08CBF0020C0
:1038E00001200E46013318BF012300906149304684
:1038F000FFF736FD3A697B699A4200F0B380DFF842
:103900008C91DFF88CB1DFF88C8107F1100A3D69EA
:103910004C2305F00F0503FB05A5083540F6B8312B
:103920002846FFF7D7FE494602463046FFF718FD06
:10393000AB68212B04D12A7B02F03F03062B24D055
:1039400059463046FFF70CFDAB6873B105F10B0427
:10395000627841463046FFF703FDA4F10A03AA68E6
:103960005B1B9A4204F10104F2D83A697B699A42DE
:103970001EBF3B6901333B613A697B699A4267D05C
:103980003D493046FFF7ECFCC1E795F82C10D5F81F
:103990000E30687B069195F82B40384941340594E8
:1039A00095F92240049495F92140039495F920401B
:1039B0000294EC7E01948000AC7E009440EA921266
:1039C0003046FFF7CDFC002305EB43040B9394F83E
:1039D000271094F8280041EA002009F059FB08F06C
:1039E00053FBCDE9080194F8231094F8240041EA30
:1039F000002009F04DFB08F047FBCDE90601217FCF
:103A0000607F41EA002009F043FB08F03DFBCDE96F
:103A10000401A17DE07D41EA002009F039FB08F0B6
:103A200033FBCDE90201A27CE07C42EA002009F0F0
:103A30002FFB08F029FB0B9BCDE900011A4610492A
:103A40003046FFF78DFC0B9B002B8ED10123BBE78B
:103A50003046FA680B49FFF783FC0023FB600DB08A
:103A6000BDE8F08F084930460DB0BDE8F04FFFF7D4
:103A700077BC00BF504701005C470100204E0100A9
:103A80006C4E01009047010080470100184E010074
:103A9000B84E0100C04E010010B5436902699B1A7F
:103AA0000F2B044606D9026943699A4202D0036982
:103AB00001330361636922699B1A0F2B0DD860697A
:103AC0004C2200F00F0002FB004018300AF068FDA5
:103AD000BFF35F8F636901336361E3680133E360C0
:103AE00010BD00BF70B506460069094B336010B1C8
:103AF00003689B689847354655F8040FA84205D0DF
:103B0000046807F0A7F8AC422046F9D1304670BDF2
:103B1000D44D010070B50D4B0D4A0446006944F8C0
:103B2000083C243344E90132A4F1080610B10368CB
:103B30009B68984754F8040FA04205D0056807F029
:103B400089F8A5422846F9D1304670BDD04E010013
:103B5000D44D010070B50C4B0C4A064680693360A9
:103B60002433C6E9013210B103689B689847354693
:103B700055F80C0FA84205D0046807F06BF8AC426A
:103B80002046F9D1304670BDD04E0100D44D010021
:103B900070B50F4B0F4A0446006944F8083C2433C3
:103BA00044E90132A4F1080610B103689B68984704
:103BB00054F8040FA04205D0056807F04BF8A54261
:103BC0002846F9D13046842107F084FE304670BD86
:103BD000D04E0100D44D010070B50E4B0E4A064682
:103BE000806933602433C6E9013210B103689B68F1
:103BF0009847354655F80C0FA84205D0046807F0E1
:103C000029F8AC422046F9D13046842107F062FE03
:103C1000304670BDD04E0100D44D010070B506464F
:103C200000690B4B336010B103689B6898473546B9
:103C300055F8040F854205D0046807F00BF8A5423B
:103C40002046F9D13046142107F044FE304670BDBD
:103C5000D44D010038B50446104BE16104F10C026B
:103C6000002103F1080503F12C003833C4E90050AA
:103C7000C4E90232C4E90421A161C4E9081184F84D
:103C8000281084F82910C4E90B11616304F138008D
:103C90004C220AF083FD204638BD00BFC84E01000B
:103CA000F8B54968214DA942044617461E462FD053
:103CB0001F48814222D01F4B994201D00020F8BDFD
:103CC0004FF49B6006F0A8FF00221B4B03600261CB
:103CD00047608660C260426100F1180300F59B6195
:103CE0001A609A604C338B42FAD1236920611BB170
:103CF0001A681846936898470120F8BD2069002388
:103D000023610028F8D003689B6898470120F8BD1C
:103D1000102006F081FF2369084947600022866071
:103D20000160C2602061002BE2D1E5E764C1EA5482
:103D3000954E5FE99E770322FC4D0100E44D0100A2
:103D400008B54A68074B9A4201D0002008BD8B682D
:103D5000C2699342F9D10C31034A0830FFF7A0FF42
:103D600008BD00BF609234C30C4E010070B506461A
:103D70000069094B336010B103689B68984735466A
:103D800055F8040FA84205D0046806F063FFAC4262
:103D90002046F9D1304670BD104F010090F84931EE
:103DA00003B970470846FCF75BBC00BFF0B5064698
:103DB00083B00F46E1B101230022CDE90032D6F8ED
:103DC000284106F59475AC4207D0A068036869469F
:103DD0001B6898472468A542F7D1D6F8340118B17A
:103DE000036869461B68984786F8487103B0F0BDC0
:103DF000D0F84431CDE90013E1E700BF10B5284AFF
:103E00004B68934282B0044639D023D9254A934265
:103E100017D0254A93421AD10B69002B37D0C868B6
:103E200001A9FFF7DDFA90B1019B204AA3F10A0135
:103E300091420CD8C4F84031FCF792FCC4F83C0124
:103E400002E01B48FEF75AF9012002B010BD002025
:103E500002B010BDA2F1D462A2F5F4326F3A9342DF
:103E6000F5D10B69134A934202D0134A9342EED123
:103E700094F8493183F0010384F84931E4E790F87C
:103E80004831002BE0D10121FFF790FFDCE74FF430
:103E90007A73C0F84031FCF763FCC4F83C01D3E707
:103EA00073843468F41C66725FD632E19686010032
:103EB000CC92FF1FDF623DB9C6B7D1D2F8B5184B1F
:103EC000184AA0F5887703F1240179600446406A16
:103ED0003B603433C7F81031626110B103689B68EE
:103EE0009847264656F8180FB04205D0056806F0E8
:103EF000B1FEB5422846F9D120690B4B236010B1C1
:103F000003689B68984754F8040FA04205D00568E1
:103F100006F0A0FEA5422846F9D13846F8BD00BFFC
:103F20005C4F0100104F01005C450100F8B5194BD2
:103F3000194AA0F5927703F12401796004460069DB
:103F40003B603433C7F81031226010B103689B68BE
:103F50009847264656F8040FB04205D0056806F08B
:103F600079FEB5422846F9D154F8040C0B4B44F8BD
:103F7000143C10B103689B68984754F8100DA04298
:103F800005D0056806F066FEA5422846F9D13846F8
:103F9000F8BD00BF5C4F0100104F01005C450100FF
:103FA00070B51A4B1A4A0446D0F83401236003F165
:103FB000240134336160C4F81031C4F8242110B1F5
:103FC00003689B689847D4F8280104F59476B042BA
:103FD00005D0056806F03EFEB5422846F9D1D4F872
:103FE00020010C4BC4F8103110B103689B6898474E
:103FF000D4F8140104F58A76864205D0056806F0E7
:1040000029FEAE422846F9D1204670BD5C4F010022
:10401000104F01005C450100F8B51B4B1B4AA0F591
:10402000927703F124017960044600693B603433E0
:10403000C7F81031226010B103689B689847264684
:1040400056F8040FB04205D0056806F003FEB542ED
:104050002846F9D154F8040C0D4B44F8143C10B127
:1040600003689B68984754F8100DA04205D0056876
:1040700006F0F0FDA5422846F9D138464FF4A67166
:1040800007F028FC3846F8BD5C4F0100104F0100D6
:104090005C450100F8B51A4B1A4AA0F5887703F180
:1040A000240179600446406A3B603433C7F810311C
:1040B000626110B103689B689847264656F8180F4E
:1040C000B04205D0056806F0C5FDB5422846F9D1D5
:1040D00020690D4B236010B103689B68984754F822
:1040E000040FA04205D0056806F0B4FDA54228469D
:1040F000F9D138464FF4A67107F0ECFB3846F8BD0D
:104100005C4F0100104F01005C45010070B51D4B74
:104110001D4A0446D0F83401236003F124013433EE
:104120006160C4F81031C4F8242110B103689B68A1
:104130009847D4F8280104F59476B04205D0056874
:1041400006F088FDB5422846F9D1D4F820010F4B7E
:10415000C4F8103110B103689B689847D4F8140173
:1041600004F58A76864205D0056806F073FDAE42F6
:104170002846F9D120464FF4A67107F0ABFB204644
:1041800070BD00BF5C4F0100104F01005C45010095
:1041900070B5064600690B4B336010B103689B682D
:1041A0009847354655F8040F854205D0046806F057
:1041B00051FDA5422046F9D13046142107F08AFB73
:1041C000304670BD104F0100224A70B502F1240440
:1041D00002F1440502F13406446002604FF4805459
:1041E0000122C0F82451C0F8444100F58A7500F559
:1041F000947480F848210022C0F83811C0F810618A
:10420000C0F81451C0F81851C0F82841C0F82C412A
:104210008260C0F81C21C0F82021C0F83021C0F80D
:104220003421C0F83C21C0F8402180F8492101B177
:1042300070BD0446084B094A09480F21FCF708FAEB
:1042400004F59270FFF792FD04F58870FCF74EFFBD
:1042500007F078FA5C4F0100344F0100A84F0100CD
:10426000404F0100F0B5D0F8403199B00D46002B19
:104270003ED040F6B832D0F83C1102FB03F21144B4
:104280006B1A002B34DBAB1A5B1A002400E03946B2
:104290001E46002E04F10104A3EB020302EB01070A
:1042A000F5DAC0F83C111CB3284FD0F84411D0F80F
:1042B0003861049500F58870CDE9017000221792ED
:1042C000059216918DF80C203368214ADB689342E1
:1042D0002CD156F8044FB4420AD0A068036801A953
:1042E000DB6898472468A642F7D1059B019723B95C
:1042F0002846FCF76BFA19B0F0BD029F01233E4639
:104300008DF85C3056F8044FB44207D0A0680368BB
:1043100004A91B6898472468A642F7D13869002889
:10432000E6D0036804A91B689847E1E7304601A975
:104330009847DAE7059B019733B1012304A9029856
:104340008DF85C30FDF7B8FF07F0FCF91C4A01005E
:104350005D1D00002DE9F04390F8483199B0054605
:104360000C469046002B4AD00021FFF71FFD002786
:104370000023C5F840312046FFF78CF8436881469A
:10438000002B42D1012095F84831002B34D1D5F8CB
:104390004031002B30D1404ED5F844218DF80C30FF
:1043A0001793059305F58873CDF810801692CDE923
:1043B0000163002840D0002F48D101AD284637497D
:1043C000FEF7CEFF059B0196B3B1029E0123354651
:1043D0008DF85C3055F8044FAC4207D0A0680368F4
:1043E00004A91B6898472468A542F7D1306918B121
:1043F000036804A91B68984719B0BDE8F083D0F89A
:104400004071B7FA87F77F09B2E7D5F83861244AD7
:1044100033689B68934215D156F8044FB44209D0D3
:10442000A068036849469B6898470028AAD1246879
:10443000A642F5D10020A6E701AD28461949FEF7AE
:104440008FFFBBE70146304698479CE7D5F83871A7
:10445000154A3B68DB6893420DD157F8044FBC42C4
:10446000ABD001ADA06803682946DB689847246893
:10447000A742F7D1A2E701AD3846294698479DE704
:10448000059B019633B1012304A902988DF85C3095
:10449000FDF712FF07F056F91C4A01002C4F0100EE
:1044A000311D0000184F01005D1D0000A0F1040047
:1044B000FFF750BF406910B10368DB6818477047C9
:1044C000704700BF704700BFC3680133C3607047C7
:1044D00010B54FF4A361044607F0FCF9204610BD67
:1044E00010B51021044607F0F5F9204610BD00BFB5
:1044F00030B5D0E9012383B05D1E0446C068019049
:10450000E81C8CBF00250125013318BF0123084694
:1045100000950349FEF724FF0023E36003B030BD9C
:104520003C4701002DE9F04FD0E901230746581E12
:10453000C41C83B08CBF002001200E46013318BF7D
:10454000012300902B493046FEF70AFF3B697A6948
:104550009A4248D0DFF8A890DFF8A880DFF8A8B02A
:1045600007F1100A3C6904F00F0404EB84050AEB20
:104570000515083540F6B83128460134FFF7AAF88A
:1045800004EB840407EB04140246236949463046D1
:10459000FEF7E6FE6B6863B1EC1D6278414630467B
:1045A000FEF7DEFEA31F6A685B1B9A4204F101045A
:1045B000F3D83A697B699A421EBF3B6901333B617C
:1045C0003A697B699A4204D059463046FEF7C8FEE4
:1045D000C8E73046FA680849FEF7C2FE0023FB60D0
:1045E00003B0BDE8F08F0549304603B0BDE8F04F99
:1045F000FEF7B6BE5047010090470100804701001A
:10460000A0510100B85101005C47010010B5436999
:1046100002699B1A0F2B044606D9026943699A4224
:1046200002D0036901330361636922699B1A0F2B6E
:104630000FD8606900F00F0000EB800004EB001061
:104640004D22183009F0ACFFBFF35F8F636901336F
:104650006361E3680133E36010BD00BF70B50E4ACB
:104660000E4B0F4904460069216344E90123261FCC
:1046700010B103689B68984754F8040FA04205D016
:10468000056806F0E7FAA5422846F9D130463821F8
:1046900007F020F9304670BDD85101005C4501009B
:1046A0000050010070B50E4A0E4B0F490646406996
:1046B0007163C6E9002310B103689B6898473546CB
:1046C00055F8080FA84205D0046806F0C3FAAC42BA
:1046D0002046F9D13046382107F0FCF8304670BD4D
:1046E000D85101005C4501000050010070B50B4A33
:1046F0000B4B04460069261F44E9012310B10368EF
:104700009B68984754F8040FA04205D0056806F04E
:10471000A1FAA5422846F9D1304670BDD851010012
:104720005C45010070B50B4A0B4B06464069C6E973
:10473000002310B103689B689847354655F8080F69
:10474000A84205D0046806F085FAAC422046F9D1AB
:10475000304670BDD85101005C45010070B50C4A6F
:104760000C4B0D4904460069216344E90123261FCF
:1047700010B103689B68984754F8040FA04205D015
:10478000056806F067FAA5422846F9D1304670BDA3
:10479000D85101005C4501007C52010070B50C4A03
:1047A0000C4B0D49064640697163C6E9002310B100
:1047B00003689B689847354655F8080FA84205D00E
:1047C000046806F047FAAC422046F9D1304670BD85
:1047D000D85101005C4501007C52010070B50D4AC2
:1047E0000D4B04460069261F44E9012310B10368FC
:1047F0009B68984754F8040FA04205D0056806F05E
:1048000029FAA5422846F9D13046342107F062F84A
:10481000304670BDD85101005C45010070B50D4AAD
:104820000D4B06464069C6E9002310B103689B683A
:104830009847354655F8080FA84205D0046806F099
:1048400009FAAC422046F9D13046342107F042F84B
:10485000304670BDD85101005C45010070B50C4A6E
:104860000C4B0D4904460069216344E90123261FCE
:1048700010B103689B68984754F8040FA04205D014
:10488000056806F0E7F9A5422846F9D1304670BD23
:10489000D85101005C4501000050010070B50C4A80
:1048A0000C4B0D49064640697163C6E9002310B1FF
:1048B00003689B689847354655F8080FA84205D00D
:1048C000046806F0C7F9AC422046F9D1304670BD05
:1048D000D85101005C4501000050010070B50E4A3E
:1048E0000E4B0F4904460069216344E90123261F4A
:1048F00010B103689B68984754F8040FA04205D094
:10490000056806F0A7F9A5422846F9D130463821B6
:1049100006F0E0FF304670BDD85101005C45010053
:104920007C52010070B50E4A0E4B0F490646406995
:104930007163C6E9002310B103689B689847354648
:1049400055F8080FA84205D0046806F083F9AC4278
:104950002046F9D13046382106F0BCFF304670BD04
:10496000D85101005C4501007C52010000F10803B0
:10497000F0B4C0E902331646044681610FCE0A4FF7
:1049800007F1080CC4F800C0283704F11C054FF0EB
:10499000000C6760C4E904CC0FC596E8030085E805
:1049A00003002046F0BC7047D05101002DE9F843C8
:1049B000576814468046894677B1012F2DD154207F
:1049C00006F02AF922464946054601F07BFBC8F865
:1049D00000504046BDE8F883382006F01DF9054632
:1049E0000FCCC5E9047705F11C0605F10807C5F8E9
:1049F0001890C5E902770FC694E803000C4BC8F87D
:104A0000005003F1240403F1340286E80300C5E9F1
:104A100000346A634046BDE8F88339460548FEF72E
:104A20003BFE2846542106F055FF06F08BFE00BFE2
:104A300008520100545101002DE9F8439046064602
:104A40000A4640461C491D4CDFF88490FEF788FC5E
:104A5000D6E9003504F1300745EA0345A368AB42C7
:104A60000DD00C34BC42F9D13368022B12D0F2685D
:104A7000404652B11249BDE8F843FEF771BC2268C6
:104A800049464046FEF76CFCEBE70E49BDE8F843AB
:104A9000FEF766BCB2680C494046FEF761FC33691C
:104AA000012BE4D1706907F0EFFA02460B4640464D
:104AB0000649FEF755FCDAE7045101006887FF1F3D
:104AC0003C5101002C510100145101002051010002
:104AD00010510100F0B53749566883B0044601F122
:104AE000300500274868864205D18868070C80B2E7
:104AF000C4E9007001270C318D42F3D1002F33D06F
:104B00002168022911D0116902F10C002A4A914250
:104B100032D1026929498A423ED029498A423DD18F
:104B200000233846E36003B0F0BD2649106988428F
:104B30002AD15169A160D169234D0020A942206189
:104B400002F11800E2D101212161506A019304F1C0
:104B500014010092FEF75AFCDDE90023054618B364
:104B6000516B02F13000D1E7D26818491846FEF7C0
:104B7000F7FB384603B0F0BD18461549FEF7F0FBC9
:104B80000027384603B0F0BD18461249FEF7E8FB8F
:104B90000027384603B0F0BD4369C2E718460E4906
:104BA000FEF7DEFB0027E4E718460C492F46FEF728
:104BB000D7FBDEE76887FF1F5DCA621C0ABB10D700
:104BC0006EE9D5429BE8C74A131B20A03450010070
:104BD000A450010050500100BC5001007850010069
:104BE0002DE9F04FA1B088460490044640F6B83154
:104BF0004046FEF76FFDD8F810300390002B3BD0F5
:104C000023460433059300230293D8F8043000931D
:104C1000049BD8F800009969644B0993DDE90263AD
:104C20000024059D1E910C90324661490A9509A801
:104C30008DF82C401F940D94FEF792FB08EB46155F
:104C40005C4909A8FEF78CFBD8F80430C82B16D0B5
:104C50000134042C05F10405F2D1574909A8FEF7E7
:104C60007FFB0D9B514A0992D3B9029AD8F81030B4
:104C700001329A420292C8D321B0BDE8F08FD8E940
:104C800002316A6A5B1A23449A42E1D1686907F0EB
:104C9000FBF902460B4609A84849FEF761FBD7E736
:104CA0000A9B06931A4601238DF87C3052F8049F24
:104CB000914542D04FF0000A9346CDF81C80D9F8B8
:104CC00008503F4A2B681B68934254D10D9A72B327
:104CD0000DF13707002605F108080CE06B68FE2B84
:104CE00004D8EA1801336B6014720D9A85F80841F4
:104CF0000136B2421BD917F8014FA4F120035E2BF5
:104D0000ECD90D2C26D00A2C20D0082C01D07F2CD9
:104D1000ECD16B68002BE9D0013BB3F5807F3FD825
:104D20006B600D9A85F808410136B242E3D8D9F894
:104D30000090CB45C3D1DDF81C80069B1869002884
:104D400093D003680CA91B6898478EE795F8083143
:104D50000D2BCBD06B68FF2B98BF5B19414698BFDA
:104D600083F808A02B68C5F804A00C9A5B68284655
:104D700098470D9ABAE728460CA99847D9F80090A9
:104D8000CB459CD1D7E70D9B084A099233B101234B
:104D90000CA90A988DF87C30FDF78EFA06F0D2FC4B
:104DA000084B094A09481721FBF752FC1C4A01002D
:104DB000C0510100CC5101007C4801009851010014
:104DC0007D1D00004C4C010080520100584C010038
:104DD000A0F13400FFF704BF2DE9F04FA1B08369C3
:104DE0000E68744D1E930C460022031D084640F6C3
:104DF000B8310C960A93666809958DF82C201F929D
:104E00000D92FEF767FCA3680093324603466A4999
:104E100009A8FEF7A5FAA368B3F5487F21DBE0688F
:104E200007F032F90646A0690F4607F02DF9CDE9E3
:104E30000401606907F028F9CDE90201206907F053
:104E400023F93246CDE900013B465C4909A8FEF74B
:104E500087FAE6694FF07E51304607F02FFF0028B1
:104E60007AD009A85649FEF77BFA0D9B099513B92C
:104E700021B0BDE8F08F0A9B07931A4693460123A1
:104E80008DF87C305BF8048FD8453DD04FF0000999
:104E9000D8F808504B4A2B681B68934254D10D9A9E
:104EA00072B30DF13707002605F1080A0CE06B68B4
:104EB000FE2B04D8EA1801336B6014720D9A85F842
:104EC00008410136B2421BD917F8014FA4F1200363
:104ED0005E2BECD90D2C26D00A2C20D0082C01D02A
:104EE0007F2CECD16B68002BE9D0013BB3F5807FC0
:104EF00059D86B600D9A85F808410136B242E3D863
:104F0000D8F80080C345C3D1079B18690028AFD0EB
:104F100003680CA91B68984721B0BDE8F08F95F88D
:104F200008310D2BCBD06B68FF2B98BF5B19514616
:104F300098BF83F808902B68C5F804900C9A5B68BA
:104F4000284698470D9ABAE728460CA99847D8F8FA
:104F50000080C3459CD1D7E7304607F095F8064658
:104F6000A06A0F4607F090F8CDE90401606A07F0E7
:104F70008BF8CDE90201206A07F086F83246CDE9C8
:104F800000013B460D4909A8FEF7EAF969E70D9BC8
:104F9000099533B101230CA90A988DF87C30FDF7EF
:104FA0008BF906F0CFFB084B084A09481721FBF79D
:104FB0004FFB00BF1C4A01007C51010088510100D9
:104FC0007C4801007D1D00004C4C01008052010016
:104FD000584C0100A0F13400FFF7FEBEF8B5496857
:104FE000214DA942044617461E462FD01F48814234
:104FF00022D01F4B994201D00020F8BD4FF4A3608E
:1050000005F00AFE00221B4B0360026147608660C8
:10501000C260426100F1180300F5A361C3E90022F8
:1050200050338B42FAD1236920611BB11A681846AC
:10503000936898470120F8BD206900232361002868
:10504000F8D003689B6898470120F8BD102005F050
:10505000E3FD236908494760002286600160C26061
:105060002061002BE2D1E5E764C1EA54954E5FE987
:105070009E770322245001000C50010008B54A68B5
:10508000074B9A4201D0002008BD8B688269934289
:10509000F9D10C31034A0430FFF7A0FF08BD00BF6F
:1050A0000B1377D448510100806910B10368DB68A5
:1050B00018477047806910B10368DB68184770476C
:1050C000704700BF704700BFC3680133C3607047BB
:1050D00010B54FF43671044606F0FCFB204610BDB7
:1050E00010B51021044606F0F5FB204610BD00BFA8
:1050F00030B5D0E9012383B05D1E0446C06801903D
:10510000E81C8CBF00250125013318BF0123084688
:1051100000950349FEF724F90023E36003B030BD96
:105120003C4701002DE9F04FD0E901230746581E06
:10513000C41C89B08CBF002001208A46013318BFEF
:10514000012300903F495046FEF70AF93B697A690E
:105150009A426FD007F1100B01E0FEF701F93D69AB
:105160002C2605F00F0506FB05F404F1080040F6B7
:10517000B8313C445844FEF7ADFA216A324B8146BF
:1051800083FB0138206BC917C1EB681806F07CFF60
:10519000CDE90601E06A06F077FFCDE90401A06AD7
:1051A00006F072FFCDE90201606A06F06DFF43462A
:1051B000CDE900014A4625495046FEF7D1F8D4F81A
:1051C00034804FF07E51404607F078FDE0B940460C
:1051D00006F05AFF05FB06653D448046686989462E
:1051E00006F052FFCDE90401E06B06F04DFFCDE97A
:1051F0000201A06B06F048FF4246CDE900014B4694
:1052000013495046FEF7ACF83A697B6911499A4256
:105210001EBF3B6901333B613A697B699A42504644
:105220009BD1FA680C49FEF79BF80023FB6009B09C
:10523000BDE8F08F0949504609B0BDE8F04FFEF7D0
:105240008FB800BF504701001F85EB51805501000A
:10525000B05501005C470100904701008047010004
:10526000036FB3F5487FACBF03200220FBF7A0BA61
:10527000436902699B1A0F2BF0B4044606D90269F0
:1052800043699A4202D00369013303616369226969
:105290009B1A0F2B14D80E4665690FCE2C2705F0EC
:1052A0000F0507FB054518350FC50FCE0FC596E84E
:1052B000070085E80700BFF35F8F6369013363610F
:1052C000E3680133E360F0BC704700BF70B5064689
:1052D0000069094B336010B103689B6898473546F5
:1052E00055F8040FA84205D0046805F0B3FCAC42A1
:1052F0002046F9D1304670BD0853010070B50F4B00
:105300000F4A0446006944F8083C203344E901325E
:10531000A4F1080610B103689B68984754F8040F7D
:10532000A04205D0056805F095FCA5422846F9D1B4
:105330003046942106F0CEFA304670BD1853010075
:105340000853010070B50E4B0E4A06468069336063
:105350002033C6E9013210B103689B68984735468F
:1053600055F80C0FA84205D0046805F073FCAC4258
:105370002046F9D13046942106F0ACFA304670BD93
:10538000185301000853010070B50D4B0D4A044637
:10539000006944F8083C203344E90132A4F10806CE
:1053A00010B103689B68984754F8040FA04205D0D9
:1053B000056805F04FFCA5422846F9D1304670BD7E
:1053C000185301000853010070B50C4B0C4A0646F7
:1053D000806933602033C6E9013210B103689B68ED
:1053E0009847354655F80C0FA84205D0046805F0DB
:1053F00031FCAC422046F9D1304670BD1853010053
:105400000853010070B50D4B0D4A0446006944F87D
:10541000083C243344E90132A4F1080610B10368C2
:105420009B68984754F8040FA04205D0056805F022
:1054300011FCA5422846F9D1304670BD54560100F2
:105440000853010070B50C4B0C4A06468069336066
:105450002433C6E9013210B103689B68984735468A
:1054600055F80C0FA84205D0046805F0F3FBAC42D8
:105470002046F9D1304670BD545601000853010052
:1054800070B50F4B0F4A0446006944F8083C2433BA
:1054900044E90132A4F1080610B103689B689847FB
:1054A00054F8040FA04205D0056805F0D3FBA542CF
:1054B0002846F9D13046402106F00CFA304670BD3E
:1054C000545601000853010070B50E4B0E4A0646B3
:1054D000806933602433C6E9013210B103689B68E8
:1054E0009847354655F80C0FA84205D0046805F0DA
:1054F000B1FBAC422046F9D13046402106F0EAF932
:10550000304670BD545601000853010070B5064680
:1055100000690B4B336010B103689B6898473546B0
:1055200055F8040F854205D0046805F093FBA542A9
:105530002046F9D13046142106F0CCF9304670BD32
:1055400008530100F0B50D460F4606460FCD93B047
:1055500007AC0FC40FCD0FC495E80700204B019393
:1055600007F10C0584E8070006F11C0C029501A95F
:105570000AAD4FF0031403AA05A8CDF818C0CDE971
:105580000335059405F070F8F8694FF07E5107F087
:1055900095FBF8B1354655F80C4FAC4212D0114F7F
:1055A00006E0043807A9FFF7CDFF2468A54209D01B
:1055B000A06803681B68BB42F3D007A9984724681A
:1055C000A542F5D1B06918B1036807A91B689847CF
:1055D00013B0F0BD044B054A0548CD21FBF738F860
:1055E00003000100F5550000E45501007857010063
:1055F000F8550100A0F10400FFF7A4BF2DE9F04128
:105600001D4D04460E4690461F4605F1200005F14B
:105610002C0304F10C010022C4E90103C4E90311C5
:10562000C4E90522C4E907672560414604F1240066
:10563000442208F0B5FF072E08D8D8F80030A3B1EF
:105640003B68022B0ED12046BDE8F0810B4B0C4A83
:105650000C481521FAF7FCFF04F10800FFF736FEAD
:1056600006F070F80848FEF717F8084B044A05489A
:105670001621FAF7EDFF00BF185301007C5301001B
:105680008C560100F8550100B053010094530100FD
:1056900070B504460E461546FFF7B0FF0021E666DA
:1056A000A1662868174A2260002302F124064FF001
:1056B0007E5530320128C4E90162C4F88450216764
:1056C0006367A367E367C4F88030C4F88830C4F820
:1056D0008C30C4F8903001D1204670BD0A4B0B4A83
:1056E0000B482021FAF7B4FF0A4B2360204603F150
:1056F00020022C33626040F8083FFFF7E7FD06F018
:1057000021F800BF1456010028550100FC56010085
:10571000F85501001853010010B582B0032101AA09
:1057200004F058FF019C0021204607F0E5FA20B163
:10573000204606F09FFA02B010BD002002B010BD56
:105740002DE9F04705468CB00846904699460E462E
:1057500005F090F80446304605F03CF800F10047AB
:10576000404605F087F80646404605F033F83146D6
:105770008046384607F00EF900218246404607F081
:1057800009F90146504606F0FBFF414606902046C7
:1057900007F000F900218046384607F0FBF8014683
:1057A000404606F0EDFF31460790204607F0F2F83C
:1057B0000146002006F0E4FF06AC08902046FFF703
:1057C000ABFF01464FF07E5007F098F922460146A4
:1057D0000323204605F0F6F84FF003160D4B039413
:1057E00004AA02A96846029304930024CDF81490F9
:1057F0000195009604F038FF05F12400149A0B94EB
:1058000009A90323CDE9094405F084F90CB0BDE8EA
:10581000F08700BF030001002DE9F04F95B00E4660
:105820001D46114600240323924608AA0190CDE9A3
:1058300008440A9405F062F83146304603AB03226F
:1058400005F00EF92946304604AB032205F008F9AD
:105850002946284605AB032205F002F908A930467F
:1058600006AB032205F0FCF807AB032208A9284683
:1058700005F0F6F8DDF814B00399DDF8108058460D
:1058800007F088F841460746404607F083F801468E
:10589000384606F075FF3349814620F0004007F096
:1058A00017FA00285AD107460799404607F072F8C0
:1058B00006990446584607F06DF80146204606F062
:1058C0005FFF494607F01AF90BAA01460323304649
:1058D000CDE90B770D9705F075F80BAA1046032359
:1058E000019905F017F90799039807F053F80699FD
:1058F0000446049807F04EF80146204606F040FFA3
:10590000494607F0FBF80EAA014603232846CDE9D5
:105910000E77109705F056F80EAA1046514603234D
:1059200005F0F8F80EA90BA811AA0323CDE9117709
:10593000139705F0EFF811A803231E9A4FF07C513E
:1059400005F040F803230EA90BA811AA04F0D6FF16
:1059500011A8FFF7E1FE1F9B01241860204615B037
:10596000BDE8F08FACC527372DE9F041D1E9002320
:10597000C72B8EB005468266036748DD866A8F684E
:10598000760106F1240201F134040A443444002073
:1059900052F8043BFB1A984238BF18469442F7D19C
:1059A0000B2859D804280E44286AB269716934BF9B
:1059B0004FF47A734FF4487308AC2B67043002AB92
:1059C0000094FFF7BDFE286A326AF1690BAE3430ED
:1059D00005AB0096FFF7B4FE05F1740705F1800CE6
:1059E00005AB3246CDE9007C02A92046FFF714FF43
:1059F000E96A686F06F0C4FE296B6867A86F06F055
:105A0000BFFE696BA867E86F06F0BAFEE8672E462E
:105A100005F1680756F80C4FB44214D0DFF8408007
:105A200004E0FFF78FFD2468A6420CD0A3681A6833
:105A3000126842453946A3F10400F2D01846904757
:105A40002468A642F2D1A86918B1036839461B68D8
:105A500098470EB0BDE8F0814FF4FA732B67D6E794
:105A6000F5550000A0F10400FFF77EBF124B036064
:105A7000F0B403F1240503F13004C0E9015400F14E
:105A80000C020023C0E90322C0E9053301F1200222
:105A900000F11C030E684D688C68CF68DF60103120
:105AA00091421E605D609C6003F11003F2D10A68B0
:105AB0001A60F0BC704700BF5456010030B50B4669
:105AC0008BB005461749186807F018F8164906F014
:105AD00061FF24220021044601A808F05FFE134B59
